{
  "contractName": "Ballot",
  "abi": [
    {
      "inputs": [
        {
          "internalType": "bytes32[]",
          "name": "proposalNames",
          "type": "bytes32[]"
        }
      ],
      "stateMutability": "nonpayable",
      "type": "constructor"
    },
    {
      "inputs": [],
      "name": "chairperson",
      "outputs": [
        {
          "internalType": "address",
          "name": "",
          "type": "address"
        }
      ],
      "stateMutability": "view",
      "type": "function",
      "constant": true
    },
    {
      "inputs": [
        {
          "internalType": "uint256",
          "name": "",
          "type": "uint256"
        }
      ],
      "name": "proposals",
      "outputs": [
        {
          "internalType": "bytes32",
          "name": "name",
          "type": "bytes32"
        },
        {
          "internalType": "uint256",
          "name": "voteCount",
          "type": "uint256"
        }
      ],
      "stateMutability": "view",
      "type": "function",
      "constant": true
    },
    {
      "inputs": [
        {
          "internalType": "address",
          "name": "",
          "type": "address"
        }
      ],
      "name": "votersRecord",
      "outputs": [
        {
          "internalType": "uint256",
          "name": "weight",
          "type": "uint256"
        },
        {
          "internalType": "bool",
          "name": "isVoted",
          "type": "bool"
        },
        {
          "internalType": "address",
          "name": "delegate",
          "type": "address"
        },
        {
          "internalType": "uint256",
          "name": "vote",
          "type": "uint256"
        }
      ],
      "stateMutability": "view",
      "type": "function",
      "constant": true
    },
    {
      "inputs": [],
      "name": "testingTheTest",
      "outputs": [
        {
          "internalType": "string",
          "name": "",
          "type": "string"
        }
      ],
      "stateMutability": "view",
      "type": "function",
      "constant": true
    },
    {
      "inputs": [
        {
          "internalType": "address",
          "name": "voter",
          "type": "address"
        }
      ],
      "name": "Registration",
      "outputs": [],
      "stateMutability": "nonpayable",
      "type": "function"
    },
    {
      "inputs": [
        {
          "internalType": "address",
          "name": "to",
          "type": "address"
        }
      ],
      "name": "delegate",
      "outputs": [],
      "stateMutability": "nonpayable",
      "type": "function"
    },
    {
      "inputs": [
        {
          "internalType": "uint256",
          "name": "proposal",
          "type": "uint256"
        }
      ],
      "name": "vote",
      "outputs": [],
      "stateMutability": "nonpayable",
      "type": "function"
    },
    {
      "inputs": [],
      "name": "winnerName",
      "outputs": [
        {
          "internalType": "bytes32",
          "name": "winnerName_",
          "type": "bytes32"
        }
      ],
      "stateMutability": "view",
      "type": "function",
      "constant": true
    }
  ],
  "bytecode": "0x60806040526040518060400160405280600681526020017f616d6f67757300000000000000000000000000000000000000000000000000008152506003908051906020019062000051929190620001f0565b503480156200005f57600080fd5b50604051620013fd380380620013fd833981810160405281019062000085919062000359565b336000806101000a81548173ffffffffffffffffffffffffffffffffffffffff021916908373ffffffffffffffffffffffffffffffffffffffff16021790555060018060008060009054906101000a900473ffffffffffffffffffffffffffffffffffffffff1673ffffffffffffffffffffffffffffffffffffffff1673ffffffffffffffffffffffffffffffffffffffff1681526020019081526020016000206000018190555060005b8151811015620001e8576002604051806040016040528084848151811062000181577f4e487b7100000000000000000000000000000000000000000000000000000000600052603260045260246000fd5b6020026020010151815260200160008152509080600181540180825580915050600190039060005260206000209060020201600090919091909150600082015181600001556020820151816001015550508080620001df906200044b565b91505062000130565b505062000540565b828054620001fe9062000415565b90600052602060002090601f0160209004810192826200022257600085556200026e565b82601f106200023d57805160ff19168380011785556200026e565b828001600101855582156200026e579182015b828111156200026d57825182559160200191906001019062000250565b5b5090506200027d919062000281565b5090565b5b808211156200029c57600081600090555060010162000282565b5090565b6000620002b7620002b184620003d2565b6200039e565b90508083825260208201905082856020860282011115620002d757600080fd5b60005b858110156200030b5781620002f0888262000342565b845260208401935060208301925050600181019050620002da565b5050509392505050565b600082601f8301126200032757600080fd5b815162000339848260208601620002a0565b91505092915050565b600081519050620003538162000526565b92915050565b6000602082840312156200036c57600080fd5b600082015167ffffffffffffffff8111156200038757600080fd5b620003958482850162000315565b91505092915050565b6000604051905081810181811067ffffffffffffffff82111715620003c857620003c7620004f7565b5b8060405250919050565b600067ffffffffffffffff821115620003f057620003ef620004f7565b5b602082029050602081019050919050565b6000819050919050565b6000819050919050565b600060028204905060018216806200042e57607f821691505b60208210811415620004455762000444620004c8565b5b50919050565b600062000458826200040b565b91507fffffffffffffffffffffffffffffffffffffffffffffffffffffffffffffffff8214156200048e576200048d62000499565b5b600182019050919050565b7f4e487b7100000000000000000000000000000000000000000000000000000000600052601160045260246000fd5b7f4e487b7100000000000000000000000000000000000000000000000000000000600052602260045260246000fd5b7f4e487b7100000000000000000000000000000000000000000000000000000000600052604160045260246000fd5b620005318162000401565b81146200053d57600080fd5b50565b610ead80620005506000396000f3fe608060405234801561001057600080fd5b50600436106100a5576000357c010000000000000000000000000000000000000000000000000000000090048063418a260811610078578063418a260814610133578063478f5152146101665780635c19a95c14610182578063e2ba53f01461019e576100a5565b80630121b93f146100aa578063013cf08b146100c65780632953e3d7146100f75780632e4176cf14610115575b600080fd5b6100c460048036038101906100bf9190610a7e565b6101bc565b005b6100e060048036038101906100db9190610a7e565b6102bd565b6040516100ee929190610bb8565b60405180910390f35b6100ff6102f1565b60405161010c9190610be1565b60405180910390f35b61011d610411565b60405161012a9190610b82565b60405180910390f35b61014d60048036038101906101489190610a55565b610435565b60405161015d9493929190610c23565b60405180910390f35b610180600480360381019061017b9190610a55565b610492565b005b61019c60048036038101906101979190610a55565b6105dd565b005b6101a66108fd565b6040516101b39190610b9d565b60405180910390f35b6000600160003373ffffffffffffffffffffffffffffffffffffffff1673ffffffffffffffffffffffffffffffffffffffff168152602001908152602001600020905060008160000154141561021157600080fd5b8060010160009054906101000a900460ff161561022d57600080fd5b60018160010160006101000a81548160ff021916908315150217905550818160020181905550806000015460028381548110610292577f4e487b7100000000000000000000000000000000000000000000000000000000600052603260045260246000fd5b906000526020600020906002020160010160008282546102b29190610c84565b925050819055505050565b600281815481106102cd57600080fd5b90600052602060002090600202016000915090508060000154908060010154905082565b606060008054906101000a900473ffffffffffffffffffffffffffffffffffffffff1673ffffffffffffffffffffffffffffffffffffffff163373ffffffffffffffffffffffffffffffffffffffff1614610381576040517f08c379a000000000000000000000000000000000000000000000000000000000815260040161037890610c03565b60405180910390fd5b6003805461038e90610d5f565b80601f01602080910402602001604051908101604052809291908181526020018280546103ba90610d5f565b80156104075780601f106103dc57610100808354040283529160200191610407565b820191906000526020600020905b8154815290600101906020018083116103ea57829003601f168201915b5050505050905090565b60008054906101000a900473ffffffffffffffffffffffffffffffffffffffff1681565b60016020528060005260406000206000915090508060000154908060010160009054906101000a900460ff16908060010160019054906101000a900473ffffffffffffffffffffffffffffffffffffffff16908060020154905084565b60008054906101000a900473ffffffffffffffffffffffffffffffffffffffff1673ffffffffffffffffffffffffffffffffffffffff163373ffffffffffffffffffffffffffffffffffffffff16146104ea57600080fd5b600160008273ffffffffffffffffffffffffffffffffffffffff1673ffffffffffffffffffffffffffffffffffffffff16815260200190815260200160002060010160009054906101000a900460ff161561054457600080fd5b6000600160008373ffffffffffffffffffffffffffffffffffffffff1673ffffffffffffffffffffffffffffffffffffffff168152602001908152602001600020600001541461059357600080fd5b60018060008373ffffffffffffffffffffffffffffffffffffffff1673ffffffffffffffffffffffffffffffffffffffff1681526020019081526020016000206000018190555050565b6000600160003373ffffffffffffffffffffffffffffffffffffffff1673ffffffffffffffffffffffffffffffffffffffff16815260200190815260200160002090508060010160009054906101000a900460ff161561063c57600080fd5b3373ffffffffffffffffffffffffffffffffffffffff168273ffffffffffffffffffffffffffffffffffffffff16141561067557600080fd5b5b600073ffffffffffffffffffffffffffffffffffffffff16600160008473ffffffffffffffffffffffffffffffffffffffff1673ffffffffffffffffffffffffffffffffffffffff16815260200190815260200160002060010160019054906101000a900473ffffffffffffffffffffffffffffffffffffffff1673ffffffffffffffffffffffffffffffffffffffff16146107af57600160008373ffffffffffffffffffffffffffffffffffffffff1673ffffffffffffffffffffffffffffffffffffffff16815260200190815260200160002060010160019054906101000a900473ffffffffffffffffffffffffffffffffffffffff1691503373ffffffffffffffffffffffffffffffffffffffff168273ffffffffffffffffffffffffffffffffffffffff1614156107aa57600080fd5b610676565b60018160010160006101000a81548160ff021916908315150217905550818160010160016101000a81548173ffffffffffffffffffffffffffffffffffffffff021916908373ffffffffffffffffffffffffffffffffffffffff1602179055506000600160008473ffffffffffffffffffffffffffffffffffffffff1673ffffffffffffffffffffffffffffffffffffffff16815260200190815260200160002090508060010160009054906101000a900460ff16156108d857816000015460028260020154815481106108ac577f4e487b7100000000000000000000000000000000000000000000000000000000600052603260045260246000fd5b906000526020600020906002020160010160008282546108cc9190610c84565b925050819055506108f8565b81600001548160000160008282546108f09190610c84565b925050819055505b505050565b60006002610909610957565b81548110610940577f4e487b7100000000000000000000000000000000000000000000000000000000600052603260045260246000fd5b906000526020600020906002020160000154905090565b6000806000905060005b600280549050811015610a265781600282815481106109a9577f4e487b7100000000000000000000000000000000000000000000000000000000600052603260045260246000fd5b9060005260206000209060020201600101541115610a1357600281815481106109fb577f4e487b7100000000000000000000000000000000000000000000000000000000600052603260045260246000fd5b90600052602060002090600202016001015491508092505b8080610a1e90610d91565b915050610961565b505090565b600081359050610a3a81610e49565b92915050565b600081359050610a4f81610e60565b92915050565b600060208284031215610a6757600080fd5b6000610a7584828501610a2b565b91505092915050565b600060208284031215610a9057600080fd5b6000610a9e84828501610a40565b91505092915050565b610ab081610cda565b82525050565b610abf81610cec565b82525050565b610ace81610cf8565b82525050565b6000610adf82610c68565b610ae98185610c73565b9350610af9818560208601610d2c565b610b0281610e38565b840191505092915050565b6000610b1a602883610c73565b91507f4f6e6c79206368616972706572736f6e2063616e20676976652072696768742060008301527f746f20766f74652e0000000000000000000000000000000000000000000000006020830152604082019050919050565b610b7c81610d22565b82525050565b6000602082019050610b976000830184610aa7565b92915050565b6000602082019050610bb26000830184610ac5565b92915050565b6000604082019050610bcd6000830185610ac5565b610bda6020830184610b73565b9392505050565b60006020820190508181036000830152610bfb8184610ad4565b905092915050565b60006020820190508181036000830152610c1c81610b0d565b9050919050565b6000608082019050610c386000830187610b73565b610c456020830186610ab6565b610c526040830185610aa7565b610c5f6060830184610b73565b95945050505050565b600081519050919050565b600082825260208201905092915050565b6000610c8f82610d22565b9150610c9a83610d22565b9250827fffffffffffffffffffffffffffffffffffffffffffffffffffffffffffffffff03821115610ccf57610cce610dda565b5b828201905092915050565b6000610ce582610d02565b9050919050565b60008115159050919050565b6000819050919050565b600073ffffffffffffffffffffffffffffffffffffffff82169050919050565b6000819050919050565b60005b83811015610d4a578082015181840152602081019050610d2f565b83811115610d59576000848401525b50505050565b60006002820490506001821680610d7757607f821691505b60208210811415610d8b57610d8a610e09565b5b50919050565b6000610d9c82610d22565b91507fffffffffffffffffffffffffffffffffffffffffffffffffffffffffffffffff821415610dcf57610dce610dda565b5b600182019050919050565b7f4e487b7100000000000000000000000000000000000000000000000000000000600052601160045260246000fd5b7f4e487b7100000000000000000000000000000000000000000000000000000000600052602260045260246000fd5b6000601f19601f8301169050919050565b610e5281610cda565b8114610e5d57600080fd5b50565b610e6981610d22565b8114610e7457600080fd5b5056fea26469706673582212208d3b2c6562e5fafe9cc518cbd08df259828d1382fbcdee021942a106668e3b9764736f6c63430008000033",
  "immutableReferences": {},
  "source": "pragma solidity >=0.7.0 <0.9.0;\r\n\r\ncontract Ballot {\r\n\r\n    struct Voter {\r\n        uint weight;\r\n        bool isVoted;\r\n        address delegate; \r\n        uint vote;  \r\n    }\r\n\r\n    struct Proposal {\r\n        bytes32 name;\r\n        uint voteCount; \r\n    }\r\n\r\n    modifier onlyChairperson {\r\n        require(msg.sender == chairperson, \"Only chairperson can give right to vote.\");\r\n        _;\r\n    }\r\n\r\n    address public chairperson;\r\n    mapping(address => Voter) public votersRecord;\r\n    Proposal[] public proposals;\r\n    string test = \"amogus\";\r\n    \r\n\r\n    constructor(bytes32[] memory proposalNames) {\r\n        chairperson = msg.sender;\r\n        votersRecord[chairperson].weight = 1;\r\n        for (uint i = 0; i < proposalNames.length; i++) {\r\n            proposals.push(Proposal({\r\n                name: proposalNames[i],\r\n                voteCount: 0\r\n            }));\r\n        }\r\n    }\r\n\r\n    function testingTheTest() public view onlyChairperson returns(string memory){\r\n        return test;\r\n    }\r\n\r\n    function Registration(address voter) public {\r\n        require(msg.sender == chairperson);\r\n        require(!votersRecord[voter].isVoted);\r\n        require(votersRecord[voter].weight == 0);\r\n        votersRecord[voter].weight = 1;\r\n    }\r\n\r\n\r\n    function delegate(address to) public {\r\n        Voter storage sender = votersRecord[msg.sender];\r\n        require(!sender.isVoted);\r\n        require(to != msg.sender);\r\n\r\n        while (votersRecord[to].delegate != address(0)) {\r\n            to = votersRecord[to].delegate;\r\n            require(to != msg.sender);\r\n        }\r\n\r\n        sender.isVoted = true;\r\n        sender.delegate = to;\r\n        Voter storage delegate_ = votersRecord[to];\r\n        if (delegate_.isVoted) {\r\n            proposals[delegate_.vote].voteCount += sender.weight;\r\n        } else {\r\n            delegate_.weight += sender.weight;\r\n        }\r\n    }\r\n\r\n    function vote(uint proposal) public {\r\n        Voter storage sender = votersRecord[msg.sender];\r\n        require(sender.weight != 0);\r\n        require(!sender.isVoted);\r\n        sender.isVoted = true;\r\n        sender.vote = proposal;\r\n        \r\n        proposals[proposal].voteCount += sender.weight;\r\n    }\r\n\r\n    function winningProposal() private view returns (uint winningProposal_){\r\n        uint winningVoteCount = 0;\r\n        for (uint p = 0; p < proposals.length; p++) {\r\n            if (proposals[p].voteCount > winningVoteCount) {\r\n                winningVoteCount = proposals[p].voteCount;\r\n                winningProposal_ = p;\r\n            }\r\n        }\r\n    }\r\n\r\n    function winnerName() public view returns (bytes32 winnerName_){\r\n        winnerName_ = proposals[winningProposal()].name;\r\n    }\r\n}",
  "sourcePath": "/home/roach/dev/solidity/Ballot/contracts/Ballot.sol",
  "compiler": {
    "name": "solc",
    "version": "0.8.0+commit.c7dfd78e.Linux.g++"
  },
  "schemaVersion": "3.3.4",
  "updatedAt": "2021-07-01T03:37:59.190Z",
  "networkType": "ethereum",
  "devdoc": {
    "kind": "dev",
    "methods": {},
    "version": 1
  },
  "userdoc": {
    "kind": "user",
    "methods": {},
    "version": 1
  }
}