{
  "contractName": "Ballot",
  "abi": [
    {
      "inputs": [
        {
          "internalType": "bytes32[]",
          "name": "proposalNames",
          "type": "bytes32[]"
        }
      ],
      "stateMutability": "nonpayable",
      "type": "constructor"
    },
    {
      "inputs": [],
      "name": "chairperson",
      "outputs": [
        {
          "internalType": "address",
          "name": "",
          "type": "address"
        }
      ],
      "stateMutability": "view",
      "type": "function",
      "constant": true
    },
    {
      "inputs": [],
      "name": "currentPhase",
      "outputs": [
        {
          "internalType": "enum Ballot.Phase",
          "name": "",
          "type": "uint8"
        }
      ],
      "stateMutability": "view",
      "type": "function",
      "constant": true
    },
    {
      "inputs": [
        {
          "internalType": "uint256",
          "name": "",
          "type": "uint256"
        }
      ],
      "name": "proposals",
      "outputs": [
        {
          "internalType": "bytes32",
          "name": "name",
          "type": "bytes32"
        },
        {
          "internalType": "uint256",
          "name": "voteCount",
          "type": "uint256"
        }
      ],
      "stateMutability": "view",
      "type": "function",
      "constant": true
    },
    {
      "inputs": [
        {
          "internalType": "address",
          "name": "",
          "type": "address"
        }
      ],
      "name": "voters",
      "outputs": [
        {
          "internalType": "uint256",
          "name": "weight",
          "type": "uint256"
        },
        {
          "internalType": "bool",
          "name": "voted",
          "type": "bool"
        },
        {
          "internalType": "address",
          "name": "delegate",
          "type": "address"
        },
        {
          "internalType": "uint256",
          "name": "vote",
          "type": "uint256"
        }
      ],
      "stateMutability": "view",
      "type": "function",
      "constant": true
    },
    {
      "inputs": [
        {
          "internalType": "uint8",
          "name": "_phase",
          "type": "uint8"
        }
      ],
      "name": "changePhase",
      "outputs": [],
      "stateMutability": "nonpayable",
      "type": "function"
    },
    {
      "inputs": [
        {
          "internalType": "address",
          "name": "voter",
          "type": "address"
        }
      ],
      "name": "registration",
      "outputs": [],
      "stateMutability": "nonpayable",
      "type": "function"
    },
    {
      "inputs": [
        {
          "internalType": "address",
          "name": "to",
          "type": "address"
        }
      ],
      "name": "delegate",
      "outputs": [],
      "stateMutability": "nonpayable",
      "type": "function"
    },
    {
      "inputs": [
        {
          "internalType": "uint256",
          "name": "proposal",
          "type": "uint256"
        }
      ],
      "name": "vote",
      "outputs": [],
      "stateMutability": "nonpayable",
      "type": "function"
    },
    {
      "inputs": [],
      "name": "winnerName",
      "outputs": [
        {
          "internalType": "bytes32",
          "name": "winnerName_",
          "type": "bytes32"
        }
      ],
      "stateMutability": "view",
      "type": "function",
      "constant": true
    }
  ],
  "bytecode": "0x608060405263610772706000556040518060600160405280600062ffffff1681526020016201518062ffffff1681526020016202a30062ffffff1681525060019060036200004f92919062000295565b506000600760006101000a81548160ff021916908360038111156200009d577f4e487b7100000000000000000000000000000000000000000000000000000000600052602160045260246000fd5b0217905550348015620000af57600080fd5b5060405162001bba38038062001bba8339818101604052810190620000d59190620003b9565b33600460006101000a81548173ffffffffffffffffffffffffffffffffffffffff021916908373ffffffffffffffffffffffffffffffffffffffff160217905550600160056000600460009054906101000a900473ffffffffffffffffffffffffffffffffffffffff1673ffffffffffffffffffffffffffffffffffffffff1673ffffffffffffffffffffffffffffffffffffffff168152602001908152602001600020600001819055506000600760006101000a81548160ff02191690836003811115620001cd577f4e487b7100000000000000000000000000000000000000000000000000000000600052602160045260246000fd5b021790555060005b81518110156200028d576006604051806040016040528084848151811062000226577f4e487b7100000000000000000000000000000000000000000000000000000000600052603260045260246000fd5b6020026020010151815260200160008152509080600181540180825580915050600190039060005260206000209060020201600090919091909150600082015181600001556020820151816001015550508080620002849062000475565b915050620001d5565b50506200053b565b8260038101928215620002ce579160200282015b82811115620002cd578251829062ffffff16905591602001919060010190620002a9565b5b509050620002dd9190620002e1565b5090565b5b80821115620002fc576000816000905550600101620002e2565b5090565b600062000317620003118462000432565b620003fe565b905080838252602082019050828560208602820111156200033757600080fd5b60005b858110156200036b5781620003508882620003a2565b8452602084019350602083019250506001810190506200033a565b5050509392505050565b600082601f8301126200038757600080fd5b81516200039984826020860162000300565b91505092915050565b600081519050620003b38162000521565b92915050565b600060208284031215620003cc57600080fd5b600082015167ffffffffffffffff811115620003e757600080fd5b620003f58482850162000375565b91505092915050565b6000604051905081810181811067ffffffffffffffff82111715620004285762000427620004f2565b5b8060405250919050565b600067ffffffffffffffff82111562000450576200044f620004f2565b5b602082029050602081019050919050565b6000819050919050565b6000819050919050565b600062000482826200046b565b91507fffffffffffffffffffffffffffffffffffffffffffffffffffffffffffffffff821415620004b857620004b7620004c3565b5b600182019050919050565b7f4e487b7100000000000000000000000000000000000000000000000000000000600052601160045260246000fd5b7f4e487b7100000000000000000000000000000000000000000000000000000000600052604160045260246000fd5b6200052c8162000461565b81146200053857600080fd5b50565b61166f806200054b6000396000f3fe608060405234801561001057600080fd5b50600436106100b0576000357c0100000000000000000000000000000000000000000000000000000000900480630840605a116100835780630840605a1461013c5780632e4176cf146101585780635c19a95c14610176578063a3ec138d14610192578063e2ba53f0146101c5576100b0565b80630121b93f146100b5578063013cf08b146100d1578063055ad42e146101025780630721c29714610120575b600080fd5b6100cf60048036038101906100ca9190610f98565b6101e3565b005b6100eb60048036038101906100e69190610f98565b610414565b6040516100f9929190611291565b60405180910390f35b61010a610448565b60405161011791906112ba565b60405180910390f35b61013a60048036038101906101359190610fc1565b61045b565b005b61015660048036038101906101519190610f6f565b6105b7565b005b610160610835565b60405161016d919061125b565b60405180910390f35b610190600480360381019061018b9190610f6f565b61085b565b005b6101ac60048036038101906101a79190610f6f565b610ce1565b6040516101bc94939291906113d5565b60405180910390f35b6101cd610d3e565b6040516101da9190611276565b60405180910390f35b600280600381111561021e577f4e487b7100000000000000000000000000000000000000000000000000000000600052602160045260246000fd5b600760009054906101000a900460ff166003811115610266577f4e487b7100000000000000000000000000000000000000000000000000000000600052602160045260246000fd5b146102a6576040517f08c379a000000000000000000000000000000000000000000000000000000000815260040161029d90611315565b60405180910390fd5b6000600560003373ffffffffffffffffffffffffffffffffffffffff1673ffffffffffffffffffffffffffffffffffffffff1681526020019081526020016000209050600081600001541415610331576040517f08c379a0000000000000000000000000000000000000000000000000000000008152600401610328906112d5565b60405180910390fd5b8060010160009054906101000a900460ff1615610383576040517f08c379a000000000000000000000000000000000000000000000000000000000815260040161037a906112f5565b60405180910390fd5b60018160010160006101000a81548160ff0219169083151502179055508281600201819055508060000154600684815481106103e8577f4e487b7100000000000000000000000000000000000000000000000000000000600052603260045260246000fd5b90600052602060002090600202016001016000828254610408919061142b565b92505081905550505050565b6006818154811061042457600080fd5b90600052602060002090600202016000915090508060000154908060010154905082565b600760009054906101000a900460ff1681565b600180826104699190611481565b60ff16600381106104a3577f4e487b7100000000000000000000000000000000000000000000000000000000600052603260045260246000fd5b01546000546104b2919061142b565b42101580156105235750610168600180836104cd9190611481565b60ff1660038110610507577f4e487b7100000000000000000000000000000000000000000000000000000000600052603260045260246000fd5b0154600054610516919061142b565b610520919061142b565b42105b156105b4578060ff166003811115610564577f4e487b7100000000000000000000000000000000000000000000000000000000600052602160045260246000fd5b600760006101000a81548160ff021916908360038111156105ae577f4e487b7100000000000000000000000000000000000000000000000000000000600052602160045260246000fd5b02179055505b50565b600460009054906101000a900473ffffffffffffffffffffffffffffffffffffffff1673ffffffffffffffffffffffffffffffffffffffff163373ffffffffffffffffffffffffffffffffffffffff1614610647576040517f08c379a000000000000000000000000000000000000000000000000000000000815260040161063e90611355565b60405180910390fd5b6001806003811115610682577f4e487b7100000000000000000000000000000000000000000000000000000000600052602160045260246000fd5b600760009054906101000a900460ff1660038111156106ca577f4e487b7100000000000000000000000000000000000000000000000000000000600052602160045260246000fd5b1461070a576040517f08c379a000000000000000000000000000000000000000000000000000000000815260040161070190611315565b60405180910390fd5b600560008373ffffffffffffffffffffffffffffffffffffffff1673ffffffffffffffffffffffffffffffffffffffff16815260200190815260200160002060010160009054906101000a900460ff161561079a576040517f08c379a000000000000000000000000000000000000000000000000000000000815260040161079190611395565b60405180910390fd5b6000600560008473ffffffffffffffffffffffffffffffffffffffff1673ffffffffffffffffffffffffffffffffffffffff16815260200190815260200160002060000154146107e957600080fd5b6001600560008473ffffffffffffffffffffffffffffffffffffffff1673ffffffffffffffffffffffffffffffffffffffff168152602001908152602001600020600001819055505050565b600460009054906101000a900473ffffffffffffffffffffffffffffffffffffffff1681565b6002806003811115610896577f4e487b7100000000000000000000000000000000000000000000000000000000600052602160045260246000fd5b600760009054906101000a900460ff1660038111156108de577f4e487b7100000000000000000000000000000000000000000000000000000000600052602160045260246000fd5b1461091e576040517f08c379a000000000000000000000000000000000000000000000000000000000815260040161091590611315565b60405180910390fd5b6000600560003373ffffffffffffffffffffffffffffffffffffffff1673ffffffffffffffffffffffffffffffffffffffff16815260200190815260200160002090508060010160009054906101000a900460ff16156109b3576040517f08c379a00000000000000000000000000000000000000000000000000000000081526004016109aa90611335565b60405180910390fd5b3373ffffffffffffffffffffffffffffffffffffffff168373ffffffffffffffffffffffffffffffffffffffff161415610a22576040517f08c379a0000000000000000000000000000000000000000000000000000000008152600401610a19906113b5565b60405180910390fd5b5b600073ffffffffffffffffffffffffffffffffffffffff16600560008573ffffffffffffffffffffffffffffffffffffffff1673ffffffffffffffffffffffffffffffffffffffff16815260200190815260200160002060010160019054906101000a900473ffffffffffffffffffffffffffffffffffffffff1673ffffffffffffffffffffffffffffffffffffffff1614610b9257600560008473ffffffffffffffffffffffffffffffffffffffff1673ffffffffffffffffffffffffffffffffffffffff16815260200190815260200160002060010160019054906101000a900473ffffffffffffffffffffffffffffffffffffffff1692503373ffffffffffffffffffffffffffffffffffffffff168373ffffffffffffffffffffffffffffffffffffffff161415610b8d576040517f08c379a0000000000000000000000000000000000000000000000000000000008152600401610b8490611375565b60405180910390fd5b610a23565b60018160010160006101000a81548160ff021916908315150217905550828160010160016101000a81548173ffffffffffffffffffffffffffffffffffffffff021916908373ffffffffffffffffffffffffffffffffffffffff1602179055506000600560008573ffffffffffffffffffffffffffffffffffffffff1673ffffffffffffffffffffffffffffffffffffffff16815260200190815260200160002090508060010160009054906101000a900460ff1615610cbb5781600001546006826002015481548110610c8f577f4e487b7100000000000000000000000000000000000000000000000000000000600052603260045260246000fd5b90600052602060002090600202016001016000828254610caf919061142b565b92505081905550610cdb565b8160000154816000016000828254610cd3919061142b565b925050819055505b50505050565b60056020528060005260406000206000915090508060000154908060010160009054906101000a900460ff16908060010160019054906101000a900473ffffffffffffffffffffffffffffffffffffffff16908060020154905084565b60006003806003811115610d7b577f4e487b7100000000000000000000000000000000000000000000000000000000600052602160045260246000fd5b600760009054906101000a900460ff166003811115610dc3577f4e487b7100000000000000000000000000000000000000000000000000000000600052602160045260246000fd5b14610e03576040517f08c379a0000000000000000000000000000000000000000000000000000000008152600401610dfa90611315565b60405180910390fd5b6006610e0d610e5c565b81548110610e44577f4e487b7100000000000000000000000000000000000000000000000000000000600052603260045260246000fd5b90600052602060002090600202016000015491505090565b6000806000905060005b600680549050811015610f2b578160068281548110610eae577f4e487b7100000000000000000000000000000000000000000000000000000000600052603260045260246000fd5b9060005260206000209060020201600101541115610f185760068181548110610f00577f4e487b7100000000000000000000000000000000000000000000000000000000600052603260045260246000fd5b90600052602060002090600202016001015491508092505b8080610f2390611539565b915050610e66565b505090565b600081359050610f3f816115f4565b92915050565b600081359050610f548161160b565b92915050565b600081359050610f6981611622565b92915050565b600060208284031215610f8157600080fd5b6000610f8f84828501610f30565b91505092915050565b600060208284031215610faa57600080fd5b6000610fb884828501610f45565b91505092915050565b600060208284031215610fd357600080fd5b6000610fe184828501610f5a565b91505092915050565b610ff3816114b5565b82525050565b611002816114c7565b82525050565b611011816114d3565b82525050565b61102081611527565b82525050565b600061103360148361141a565b91507f486173206e6f20726967687420746f20766f74650000000000000000000000006000830152602082019050919050565b6000611073600e8361141a565b91507f416c726561647920766f7465642e0000000000000000000000000000000000006000830152602082019050919050565b60006110b360198361141a565b91507f5265717569726564205068617365206e6f7420416374697665000000000000006000830152602082019050919050565b60006110f360128361141a565b91507f596f7520616c726561647920766f7465642e00000000000000000000000000006000830152602082019050919050565b600061113360288361141a565b91507f4f6e6c79206368616972706572736f6e2063616e20676976652072696768742060008301527f746f20766f74652e0000000000000000000000000000000000000000000000006020830152604082019050919050565b600061119960198361141a565b91507f466f756e64206c6f6f7020696e2064656c65676174696f6e2e000000000000006000830152602082019050919050565b60006111d960188361141a565b91507f54686520766f74657220616c726561647920766f7465642e00000000000000006000830152602082019050919050565b6000611219601e8361141a565b91507f53656c662d64656c65676174696f6e20697320646973616c6c6f7765642e00006000830152602082019050919050565b61125581611510565b82525050565b60006020820190506112706000830184610fea565b92915050565b600060208201905061128b6000830184611008565b92915050565b60006040820190506112a66000830185611008565b6112b3602083018461124c565b9392505050565b60006020820190506112cf6000830184611017565b92915050565b600060208201905081810360008301526112ee81611026565b9050919050565b6000602082019050818103600083015261130e81611066565b9050919050565b6000602082019050818103600083015261132e816110a6565b9050919050565b6000602082019050818103600083015261134e816110e6565b9050919050565b6000602082019050818103600083015261136e81611126565b9050919050565b6000602082019050818103600083015261138e8161118c565b9050919050565b600060208201905081810360008301526113ae816111cc565b9050919050565b600060208201905081810360008301526113ce8161120c565b9050919050565b60006080820190506113ea600083018761124c565b6113f76020830186610ff9565b6114046040830185610fea565b611411606083018461124c565b95945050505050565b600082825260208201905092915050565b600061143682611510565b915061144183611510565b9250827fffffffffffffffffffffffffffffffffffffffffffffffffffffffffffffffff0382111561147657611475611582565b5b828201905092915050565b600061148c8261151a565b91506114978361151a565b9250828210156114aa576114a9611582565b5b828203905092915050565b60006114c0826114f0565b9050919050565b60008115159050919050565b6000819050919050565b60008190506114eb826115e0565b919050565b600073ffffffffffffffffffffffffffffffffffffffff82169050919050565b6000819050919050565b600060ff82169050919050565b6000611532826114dd565b9050919050565b600061154482611510565b91507fffffffffffffffffffffffffffffffffffffffffffffffffffffffffffffffff82141561157757611576611582565b5b600182019050919050565b7f4e487b7100000000000000000000000000000000000000000000000000000000600052601160045260246000fd5b7f4e487b7100000000000000000000000000000000000000000000000000000000600052602160045260246000fd5b600481106115f1576115f06115b1565b5b50565b6115fd816114b5565b811461160857600080fd5b50565b61161481611510565b811461161f57600080fd5b50565b61162b8161151a565b811461163657600080fd5b5056fea2646970667358221220df1ad0bc39a4128de6ba6046f62f626fe819622179b31bb95ba2e4b30c7735c664736f6c63430008000033",
  "immutableReferences": {},
  "source": "pragma solidity >=0.7.0 <0.9.0;\r\n\r\n\r\n//\r\n//\r\n//\r\n//\r\n\r\ncontract Ballot {\r\n    \r\n    //set regPhasestart when you want registration phase to start\r\n    //currently set to 2/8/21, 0420 gmt \r\n    uint regPhaseStart = 1627878000;\r\n\r\n    //time window in which the phase state vaiable must be \r\n    //successfully changed to nexxt phase\r\n    uint constant phaseWindow = 360;\r\n\r\n    uint[3] phaseTime = [0, 1 days, 2 days];\r\n   \r\n    struct Voter {\r\n        uint weight; // weight is accumulated by delegation\r\n        bool voted;  // if true, that person already voted\r\n        address delegate; // person delegated to\r\n        uint vote;   // index of the voted proposal\r\n    }\r\n\r\n    struct Proposal {\r\n        bytes32 name;   // short name (up to 32 bytes)\r\n        uint voteCount; // number of accumulated votes\r\n    }\r\n    \r\n    enum Phase {init, reg, vote, res}\r\n    \r\n    modifier onlyChairperson {\r\n        require(msg.sender == chairperson, \"Only chairperson can give right to vote.\");\r\n        _;\r\n    }\r\n    \r\n    modifier validPhase (Phase _phase) {\r\n        require(currentPhase == _phase, \"Required Phase not Active\");\r\n        _;\r\n    }\r\n\r\n    address public chairperson;\r\n    mapping(address => Voter) public voters;\r\n    Proposal[] public proposals;\r\n    Phase public currentPhase = Phase.init;\r\n\r\n    \r\n    constructor(bytes32[] memory proposalNames) {\r\n        chairperson = msg.sender;\r\n        voters[chairperson].weight = 1;\r\n        currentPhase = Phase.init;\r\n\r\n        for (uint i = 0; i < proposalNames.length; i++) {\r\n            proposals.push(Proposal({\r\n                name: proposalNames[i],\r\n                voteCount: 0\r\n            }));\r\n        }\r\n    }\r\n    \r\n    \r\n    function changePhase(uint8 _phase) public {\r\n        if(block.timestamp >= regPhaseStart + phaseTime[_phase-1] && block.timestamp < regPhaseStart + phaseTime[_phase-1]+phaseWindow){\r\n            currentPhase = Phase(_phase);\r\n        }    \r\n    }\r\n    \r\n    \r\n    function registration(address voter) public onlyChairperson validPhase(Phase.reg){\r\n        require(\r\n            !voters[voter].voted,\r\n            \"The voter already voted.\"\r\n        );\r\n        require(voters[voter].weight == 0);\r\n        voters[voter].weight = 1;\r\n    }\r\n\r\n    \r\n    function delegate(address to) public validPhase(Phase.vote){\r\n        Voter storage sender = voters[msg.sender];\r\n        require(!sender.voted, \"You already voted.\");\r\n        require(to != msg.sender, \"Self-delegation is disallowed.\");\r\n\r\n        while (voters[to].delegate != address(0)) {\r\n            to = voters[to].delegate;\r\n            require(to != msg.sender, \"Found loop in delegation.\");\r\n        }\r\n        sender.voted = true;\r\n        sender.delegate = to;\r\n        Voter storage delegate_ = voters[to];\r\n        if (delegate_.voted) {\r\n            proposals[delegate_.vote].voteCount += sender.weight;\r\n        } else {\r\n            delegate_.weight += sender.weight;\r\n        }\r\n    }\r\n\r\n    \r\n    function vote(uint proposal) public validPhase(Phase.vote){\r\n        Voter storage sender = voters[msg.sender];\r\n        require(sender.weight != 0, \"Has no right to vote\");\r\n        require(!sender.voted, \"Already voted.\");\r\n        sender.voted = true;\r\n        sender.vote = proposal;\r\n\r\n        proposals[proposal].voteCount += sender.weight;\r\n    }\r\n\r\n    \r\n    function winningProposal() private view \r\n            returns (uint winningProposal_)\r\n    {\r\n        uint winningVoteCount = 0;\r\n        for (uint p = 0; p < proposals.length; p++) {\r\n            if (proposals[p].voteCount > winningVoteCount) {\r\n                winningVoteCount = proposals[p].voteCount;\r\n                winningProposal_ = p;\r\n            }\r\n        }\r\n    }\r\n\r\n \r\n    function winnerName() public view validPhase(Phase.res)\r\n            returns (bytes32 winnerName_)\r\n    {\r\n        winnerName_ = proposals[winningProposal()].name;\r\n    }\r\n}\r\n",
  "sourcePath": "/home/roach/dev/solidity/Ballot/contracts/Ballot.sol",
  "compiler": {
    "name": "solc",
    "version": "0.8.0+commit.c7dfd78e.Linux.g++"
  },
  "schemaVersion": "3.3.4",
  "updatedAt": "2021-07-15T23:27:56.250Z",
  "networkType": "ethereum",
  "devdoc": {
    "kind": "dev",
    "methods": {},
    "version": 1
  },
  "userdoc": {
    "kind": "user",
    "methods": {},
    "version": 1
  }
}