{
  "contractName": "Ballot",
  "abi": [
    {
      "inputs": [
        {
          "internalType": "bytes32[]",
          "name": "proposalNames",
          "type": "bytes32[]"
        }
      ],
      "stateMutability": "nonpayable",
      "type": "constructor"
    },
    {
      "inputs": [],
      "name": "chairperson",
      "outputs": [
        {
          "internalType": "address",
          "name": "",
          "type": "address"
        }
      ],
      "stateMutability": "view",
      "type": "function",
      "constant": true
    },
    {
      "inputs": [
        {
          "internalType": "uint256",
          "name": "",
          "type": "uint256"
        }
      ],
      "name": "proposals",
      "outputs": [
        {
          "internalType": "bytes32",
          "name": "name",
          "type": "bytes32"
        },
        {
          "internalType": "uint256",
          "name": "voteCount",
          "type": "uint256"
        }
      ],
      "stateMutability": "view",
      "type": "function",
      "constant": true
    },
    {
      "inputs": [
        {
          "internalType": "address",
          "name": "",
          "type": "address"
        }
      ],
      "name": "votersRecord",
      "outputs": [
        {
          "internalType": "uint256",
          "name": "weight",
          "type": "uint256"
        },
        {
          "internalType": "bool",
          "name": "isVoted",
          "type": "bool"
        },
        {
          "internalType": "address",
          "name": "delegate",
          "type": "address"
        },
        {
          "internalType": "uint256",
          "name": "vote",
          "type": "uint256"
        }
      ],
      "stateMutability": "view",
      "type": "function",
      "constant": true
    },
    {
      "inputs": [
        {
          "internalType": "address",
          "name": "voter",
          "type": "address"
        }
      ],
      "name": "registration",
      "outputs": [],
      "stateMutability": "nonpayable",
      "type": "function"
    },
    {
      "inputs": [
        {
          "internalType": "address",
          "name": "to",
          "type": "address"
        }
      ],
      "name": "delegate",
      "outputs": [],
      "stateMutability": "nonpayable",
      "type": "function"
    },
    {
      "inputs": [
        {
          "internalType": "uint256",
          "name": "proposal",
          "type": "uint256"
        }
      ],
      "name": "vote",
      "outputs": [],
      "stateMutability": "nonpayable",
      "type": "function"
    },
    {
      "inputs": [],
      "name": "winningProposal",
      "outputs": [
        {
          "internalType": "bytes32",
          "name": "winningName_",
          "type": "bytes32"
        }
      ],
      "stateMutability": "view",
      "type": "function",
      "constant": true
    }
  ],
  "bytecode": "0x60806040523480156200001157600080fd5b506040516200106e3803806200106e83398181016040528101906200003791906200025b565b336000806101000a81548173ffffffffffffffffffffffffffffffffffffffff021916908373ffffffffffffffffffffffffffffffffffffffff16021790555060018060008060009054906101000a900473ffffffffffffffffffffffffffffffffffffffff1673ffffffffffffffffffffffffffffffffffffffff1673ffffffffffffffffffffffffffffffffffffffff1681526020019081526020016000206000018190555060005b81518110156200019a576002604051806040016040528084848151811062000133577f4e487b7100000000000000000000000000000000000000000000000000000000600052603260045260246000fd5b6020026020010151815260200160008152509080600181540180825580915050600190039060005260206000209060020201600090919091909150600082015181600001556020820151816001015550508080620001919062000317565b915050620000e2565b5050620003dd565b6000620001b9620001b384620002d4565b620002a0565b90508083825260208201905082856020860282011115620001d957600080fd5b60005b858110156200020d5781620001f2888262000244565b845260208401935060208301925050600181019050620001dc565b5050509392505050565b600082601f8301126200022957600080fd5b81516200023b848260208601620001a2565b91505092915050565b6000815190506200025581620003c3565b92915050565b6000602082840312156200026e57600080fd5b600082015167ffffffffffffffff8111156200028957600080fd5b620002978482850162000217565b91505092915050565b6000604051905081810181811067ffffffffffffffff82111715620002ca57620002c962000394565b5b8060405250919050565b600067ffffffffffffffff821115620002f257620002f162000394565b5b602082029050602081019050919050565b6000819050919050565b6000819050919050565b600062000324826200030d565b91507fffffffffffffffffffffffffffffffffffffffffffffffffffffffffffffffff8214156200035a576200035962000365565b5b600182019050919050565b7f4e487b7100000000000000000000000000000000000000000000000000000000600052601160045260246000fd5b7f4e487b7100000000000000000000000000000000000000000000000000000000600052604160045260246000fd5b620003ce8162000303565b8114620003da57600080fd5b50565b610c8180620003ed6000396000f3fe608060405234801561001057600080fd5b506004361061009a576000357c0100000000000000000000000000000000000000000000000000000000900480632e4176cf116100785780632e4176cf14610108578063418a2608146101265780635c19a95c14610159578063609ff1bd146101755761009a565b80630121b93f1461009f578063013cf08b146100bb5780630840605a146100ec575b600080fd5b6100b960048036038101906100b4919061095d565b610193565b005b6100d560048036038101906100d0919061095d565b610294565b6040516100e3929190610a5e565b60405180910390f35b61010660048036038101906101019190610934565b6102c8565b005b610110610449565b60405161011d9190610a28565b60405180910390f35b610140600480360381019061013b9190610934565b61046d565b6040516101509493929190610aa7565b60405180910390f35b610173600480360381019061016e9190610934565b6104ca565b005b61017d6107ea565b60405161018a9190610a43565b60405180910390f35b6000600160003373ffffffffffffffffffffffffffffffffffffffff1673ffffffffffffffffffffffffffffffffffffffff16815260200190815260200160002090506000816000015414156101e857600080fd5b8060010160009054906101000a900460ff161561020457600080fd5b60018160010160006101000a81548160ff021916908315150217905550818160020181905550806000015460028381548110610269577f4e487b7100000000000000000000000000000000000000000000000000000000600052603260045260246000fd5b906000526020600020906002020160010160008282546102899190610afd565b925050819055505050565b600281815481106102a457600080fd5b90600052602060002090600202016000915090508060000154908060010154905082565b60008054906101000a900473ffffffffffffffffffffffffffffffffffffffff1673ffffffffffffffffffffffffffffffffffffffff163373ffffffffffffffffffffffffffffffffffffffff1614610356576040517f08c379a000000000000000000000000000000000000000000000000000000000815260040161034d90610a87565b60405180910390fd5b600160008273ffffffffffffffffffffffffffffffffffffffff1673ffffffffffffffffffffffffffffffffffffffff16815260200190815260200160002060010160009054906101000a900460ff16156103b057600080fd5b6000600160008373ffffffffffffffffffffffffffffffffffffffff1673ffffffffffffffffffffffffffffffffffffffff16815260200190815260200160002060000154146103ff57600080fd5b60018060008373ffffffffffffffffffffffffffffffffffffffff1673ffffffffffffffffffffffffffffffffffffffff1681526020019081526020016000206000018190555050565b60008054906101000a900473ffffffffffffffffffffffffffffffffffffffff1681565b60016020528060005260406000206000915090508060000154908060010160009054906101000a900460ff16908060010160019054906101000a900473ffffffffffffffffffffffffffffffffffffffff16908060020154905084565b6000600160003373ffffffffffffffffffffffffffffffffffffffff1673ffffffffffffffffffffffffffffffffffffffff16815260200190815260200160002090508060010160009054906101000a900460ff161561052957600080fd5b3373ffffffffffffffffffffffffffffffffffffffff168273ffffffffffffffffffffffffffffffffffffffff16141561056257600080fd5b5b600073ffffffffffffffffffffffffffffffffffffffff16600160008473ffffffffffffffffffffffffffffffffffffffff1673ffffffffffffffffffffffffffffffffffffffff16815260200190815260200160002060010160019054906101000a900473ffffffffffffffffffffffffffffffffffffffff1673ffffffffffffffffffffffffffffffffffffffff161461069c57600160008373ffffffffffffffffffffffffffffffffffffffff1673ffffffffffffffffffffffffffffffffffffffff16815260200190815260200160002060010160019054906101000a900473ffffffffffffffffffffffffffffffffffffffff1691503373ffffffffffffffffffffffffffffffffffffffff168273ffffffffffffffffffffffffffffffffffffffff16141561069757600080fd5b610563565b60018160010160006101000a81548160ff021916908315150217905550818160010160016101000a81548173ffffffffffffffffffffffffffffffffffffffff021916908373ffffffffffffffffffffffffffffffffffffffff1602179055506000600160008473ffffffffffffffffffffffffffffffffffffffff1673ffffffffffffffffffffffffffffffffffffffff16815260200190815260200160002090508060010160009054906101000a900460ff16156107c55781600001546002826002015481548110610799577f4e487b7100000000000000000000000000000000000000000000000000000000600052603260045260246000fd5b906000526020600020906002020160010160008282546107b99190610afd565b925050819055506107e5565b81600001548160000160008282546107dd9190610afd565b925050819055505b505050565b6000806000805b6002805490508110156108b6578160028281548110610839577f4e487b7100000000000000000000000000000000000000000000000000000000600052603260045260246000fd5b90600052602060002090600202016001015411156108a3576002818154811061088b577f4e487b7100000000000000000000000000000000000000000000000000000000600052603260045260246000fd5b90600052602060002090600202016001015491508092505b80806108ae90610ba5565b9150506107f1565b50600282815481106108f1577f4e487b7100000000000000000000000000000000000000000000000000000000600052603260045260246000fd5b9060005260206000209060020201600001549250505090565b60008135905061091981610c1d565b92915050565b60008135905061092e81610c34565b92915050565b60006020828403121561094657600080fd5b60006109548482850161090a565b91505092915050565b60006020828403121561096f57600080fd5b600061097d8482850161091f565b91505092915050565b61098f81610b53565b82525050565b61099e81610b65565b82525050565b6109ad81610b71565b82525050565b60006109c0602883610aec565b91507f4f6e6c79206368616972706572736f6e2063616e20676976652072696768742060008301527f746f20766f74652e0000000000000000000000000000000000000000000000006020830152604082019050919050565b610a2281610b9b565b82525050565b6000602082019050610a3d6000830184610986565b92915050565b6000602082019050610a5860008301846109a4565b92915050565b6000604082019050610a7360008301856109a4565b610a806020830184610a19565b9392505050565b60006020820190508181036000830152610aa0816109b3565b9050919050565b6000608082019050610abc6000830187610a19565b610ac96020830186610995565b610ad66040830185610986565b610ae36060830184610a19565b95945050505050565b600082825260208201905092915050565b6000610b0882610b9b565b9150610b1383610b9b565b9250827fffffffffffffffffffffffffffffffffffffffffffffffffffffffffffffffff03821115610b4857610b47610bee565b5b828201905092915050565b6000610b5e82610b7b565b9050919050565b60008115159050919050565b6000819050919050565b600073ffffffffffffffffffffffffffffffffffffffff82169050919050565b6000819050919050565b6000610bb082610b9b565b91507fffffffffffffffffffffffffffffffffffffffffffffffffffffffffffffffff821415610be357610be2610bee565b5b600182019050919050565b7f4e487b7100000000000000000000000000000000000000000000000000000000600052601160045260246000fd5b610c2681610b53565b8114610c3157600080fd5b50565b610c3d81610b9b565b8114610c4857600080fd5b5056fea264697066735822122040a0e154159c5f3d1896a88f75905c5b61f8fabbff4093682247876499b5ff5064736f6c63430008000033",
  "immutableReferences": {},
  "source": "pragma solidity >=0.7.0 <0.9.0;\r\n\r\ncontract Ballot {\r\n\r\n    // Structures Definitions\r\n    struct Voter {\r\n        uint weight;\r\n        bool isVoted;\r\n        address delegate; \r\n        uint vote;  \r\n    }\r\n\r\n    struct Proposal {\r\n        bytes32 name;\r\n        uint voteCount; \r\n    }\r\n\r\n  \r\n    // Modifiers\r\n    modifier onlyChairperson {\r\n        require(msg.sender == chairperson, \"Only chairperson can give right to vote.\");\r\n        _;\r\n    }\r\n\r\n\r\n    // State Variables\r\n    address public chairperson;\r\n    mapping(address => Voter) public votersRecord;\r\n    Proposal[] public proposals;\r\n    \r\n\r\n    // Constructor and Functions\r\n    constructor(bytes32[] memory proposalNames) {\r\n        chairperson = msg.sender;\r\n        votersRecord[chairperson].weight = 1;\r\n        for (uint i = 0; i < proposalNames.length; i++) {\r\n            proposals.push(Proposal({\r\n                name: proposalNames[i],\r\n                voteCount: 0\r\n            }));\r\n        }\r\n    }\r\n\r\n    function registration(address voter) public  onlyChairperson {\r\n        require(!votersRecord[voter].isVoted);\r\n        require(votersRecord[voter].weight == 0);\r\n        votersRecord[voter].weight = 1;\r\n    }\r\n\r\n    function delegate(address to) public {\r\n        Voter storage sender = votersRecord[msg.sender];\r\n        require(!sender.isVoted);\r\n        require(to != msg.sender);\r\n\r\n        while (votersRecord[to].delegate != address(0)) {\r\n            to = votersRecord[to].delegate;\r\n            require(to != msg.sender);\r\n        }\r\n\r\n        sender.isVoted = true;\r\n        sender.delegate = to;\r\n        Voter storage delegate_ = votersRecord[to];\r\n        if (delegate_.isVoted) {\r\n            proposals[delegate_.vote].voteCount += sender.weight;\r\n        } else {\r\n            delegate_.weight += sender.weight;\r\n        }\r\n    }\r\n\r\n    function vote(uint proposal) public {\r\n        Voter storage sender = votersRecord[msg.sender];\r\n        require(sender.weight != 0);\r\n        require(!sender.isVoted);\r\n        sender.isVoted = true;\r\n        sender.vote = proposal;\r\n        \r\n        proposals[proposal].voteCount += sender.weight;\r\n    }\r\n\r\n    function winningProposal() public view returns (bytes32 winningName_){\r\n        uint winningProposal_;\r\n        uint winningVoteCount = 0;\r\n        for (uint p = 0; p < proposals.length; p++) {\r\n            if (proposals[p].voteCount > winningVoteCount) {\r\n                winningVoteCount = proposals[p].voteCount;\r\n                winningProposal_ = p;\r\n            }\r\n        }\r\n        winningName_ = proposals[winningProposal_].name;\r\n    }\r\n}",
  "sourcePath": "/home/roach/dev/solidity/Ballot/contracts/Ballot.sol",
  "compiler": {
    "name": "solc",
    "version": "0.8.0+commit.c7dfd78e.Linux.g++"
  },
  "schemaVersion": "3.3.4",
  "updatedAt": "2021-07-06T12:13:28.816Z",
  "networkType": "ethereum",
  "devdoc": {
    "kind": "dev",
    "methods": {},
    "version": 1
  },
  "userdoc": {
    "kind": "user",
    "methods": {},
    "version": 1
  }
}