{
  "contractName": "Ballot",
  "abi": [
    {
      "inputs": [
        {
          "internalType": "bytes32[]",
          "name": "proposalNames",
          "type": "bytes32[]"
        }
      ],
      "stateMutability": "nonpayable",
      "type": "constructor"
    },
    {
      "inputs": [],
      "name": "chairperson",
      "outputs": [
        {
          "internalType": "address",
          "name": "",
          "type": "address"
        }
      ],
      "stateMutability": "view",
      "type": "function",
      "constant": true
    },
    {
      "inputs": [
        {
          "internalType": "uint256",
          "name": "",
          "type": "uint256"
        }
      ],
      "name": "proposals",
      "outputs": [
        {
          "internalType": "bytes32",
          "name": "name",
          "type": "bytes32"
        },
        {
          "internalType": "uint256",
          "name": "voteCount",
          "type": "uint256"
        }
      ],
      "stateMutability": "view",
      "type": "function",
      "constant": true
    },
    {
      "inputs": [
        {
          "internalType": "address",
          "name": "",
          "type": "address"
        }
      ],
      "name": "votersRecord",
      "outputs": [
        {
          "internalType": "uint256",
          "name": "weight",
          "type": "uint256"
        },
        {
          "internalType": "bool",
          "name": "isVoted",
          "type": "bool"
        },
        {
          "internalType": "address",
          "name": "delegate",
          "type": "address"
        },
        {
          "internalType": "uint256",
          "name": "vote",
          "type": "uint256"
        }
      ],
      "stateMutability": "view",
      "type": "function",
      "constant": true
    },
    {
      "inputs": [
        {
          "internalType": "address",
          "name": "voter",
          "type": "address"
        }
      ],
      "name": "Registration",
      "outputs": [],
      "stateMutability": "nonpayable",
      "type": "function"
    },
    {
      "inputs": [
        {
          "internalType": "address",
          "name": "to",
          "type": "address"
        }
      ],
      "name": "delegate",
      "outputs": [],
      "stateMutability": "nonpayable",
      "type": "function"
    },
    {
      "inputs": [
        {
          "internalType": "uint256",
          "name": "proposal",
          "type": "uint256"
        }
      ],
      "name": "vote",
      "outputs": [],
      "stateMutability": "nonpayable",
      "type": "function"
    },
    {
      "inputs": [],
      "name": "winnerName",
      "outputs": [
        {
          "internalType": "bytes32",
          "name": "winnerName_",
          "type": "bytes32"
        }
      ],
      "stateMutability": "view",
      "type": "function",
      "constant": true
    }
  ],
  "bytecode": "0x60806040523480156200001157600080fd5b5060405162000faf38038062000faf83398181016040528101906200003791906200025b565b336000806101000a81548173ffffffffffffffffffffffffffffffffffffffff021916908373ffffffffffffffffffffffffffffffffffffffff16021790555060018060008060009054906101000a900473ffffffffffffffffffffffffffffffffffffffff1673ffffffffffffffffffffffffffffffffffffffff1673ffffffffffffffffffffffffffffffffffffffff1681526020019081526020016000206000018190555060005b81518110156200019a576002604051806040016040528084848151811062000133577f4e487b7100000000000000000000000000000000000000000000000000000000600052603260045260246000fd5b6020026020010151815260200160008152509080600181540180825580915050600190039060005260206000209060020201600090919091909150600082015181600001556020820151816001015550508080620001919062000317565b915050620000e2565b5050620003dd565b6000620001b9620001b384620002d4565b620002a0565b90508083825260208201905082856020860282011115620001d957600080fd5b60005b858110156200020d5781620001f2888262000244565b845260208401935060208301925050600181019050620001dc565b5050509392505050565b600082601f8301126200022957600080fd5b81516200023b848260208601620001a2565b91505092915050565b6000815190506200025581620003c3565b92915050565b6000602082840312156200026e57600080fd5b600082015167ffffffffffffffff8111156200028957600080fd5b620002978482850162000217565b91505092915050565b6000604051905081810181811067ffffffffffffffff82111715620002ca57620002c962000394565b5b8060405250919050565b600067ffffffffffffffff821115620002f257620002f162000394565b5b602082029050602081019050919050565b6000819050919050565b6000819050919050565b600062000324826200030d565b91507fffffffffffffffffffffffffffffffffffffffffffffffffffffffffffffffff8214156200035a576200035962000365565b5b600182019050919050565b7f4e487b7100000000000000000000000000000000000000000000000000000000600052601160045260246000fd5b7f4e487b7100000000000000000000000000000000000000000000000000000000600052604160045260246000fd5b620003ce8162000303565b8114620003da57600080fd5b50565b610bc280620003ed6000396000f3fe608060405234801561001057600080fd5b506004361061009a576000357c010000000000000000000000000000000000000000000000000000000090048063418a260811610078578063418a26081461010a578063478f51521461013d5780635c19a95c14610159578063e2ba53f0146101755761009a565b80630121b93f1461009f578063013cf08b146100bb5780632e4176cf146100ec575b600080fd5b6100b960048036038101906100b49190610935565b610193565b005b6100d560048036038101906100d09190610935565b610294565b6040516100e39291906109d0565b60405180910390f35b6100f46102c8565b604051610101919061099a565b60405180910390f35b610124600480360381019061011f919061090c565b6102ec565b60405161013494939291906109f9565b60405180910390f35b6101576004803603810190610152919061090c565b610349565b005b610173600480360381019061016e919061090c565b610494565b005b61017d6107b4565b60405161018a91906109b5565b60405180910390f35b6000600160003373ffffffffffffffffffffffffffffffffffffffff1673ffffffffffffffffffffffffffffffffffffffff16815260200190815260200160002090506000816000015414156101e857600080fd5b8060010160009054906101000a900460ff161561020457600080fd5b60018160010160006101000a81548160ff021916908315150217905550818160020181905550806000015460028381548110610269577f4e487b7100000000000000000000000000000000000000000000000000000000600052603260045260246000fd5b906000526020600020906002020160010160008282546102899190610a3e565b925050819055505050565b600281815481106102a457600080fd5b90600052602060002090600202016000915090508060000154908060010154905082565b60008054906101000a900473ffffffffffffffffffffffffffffffffffffffff1681565b60016020528060005260406000206000915090508060000154908060010160009054906101000a900460ff16908060010160019054906101000a900473ffffffffffffffffffffffffffffffffffffffff16908060020154905084565b60008054906101000a900473ffffffffffffffffffffffffffffffffffffffff1673ffffffffffffffffffffffffffffffffffffffff163373ffffffffffffffffffffffffffffffffffffffff16146103a157600080fd5b600160008273ffffffffffffffffffffffffffffffffffffffff1673ffffffffffffffffffffffffffffffffffffffff16815260200190815260200160002060010160009054906101000a900460ff16156103fb57600080fd5b6000600160008373ffffffffffffffffffffffffffffffffffffffff1673ffffffffffffffffffffffffffffffffffffffff168152602001908152602001600020600001541461044a57600080fd5b60018060008373ffffffffffffffffffffffffffffffffffffffff1673ffffffffffffffffffffffffffffffffffffffff1681526020019081526020016000206000018190555050565b6000600160003373ffffffffffffffffffffffffffffffffffffffff1673ffffffffffffffffffffffffffffffffffffffff16815260200190815260200160002090508060010160009054906101000a900460ff16156104f357600080fd5b3373ffffffffffffffffffffffffffffffffffffffff168273ffffffffffffffffffffffffffffffffffffffff16141561052c57600080fd5b5b600073ffffffffffffffffffffffffffffffffffffffff16600160008473ffffffffffffffffffffffffffffffffffffffff1673ffffffffffffffffffffffffffffffffffffffff16815260200190815260200160002060010160019054906101000a900473ffffffffffffffffffffffffffffffffffffffff1673ffffffffffffffffffffffffffffffffffffffff161461066657600160008373ffffffffffffffffffffffffffffffffffffffff1673ffffffffffffffffffffffffffffffffffffffff16815260200190815260200160002060010160019054906101000a900473ffffffffffffffffffffffffffffffffffffffff1691503373ffffffffffffffffffffffffffffffffffffffff168273ffffffffffffffffffffffffffffffffffffffff16141561066157600080fd5b61052d565b60018160010160006101000a81548160ff021916908315150217905550818160010160016101000a81548173ffffffffffffffffffffffffffffffffffffffff021916908373ffffffffffffffffffffffffffffffffffffffff1602179055506000600160008473ffffffffffffffffffffffffffffffffffffffff1673ffffffffffffffffffffffffffffffffffffffff16815260200190815260200160002090508060010160009054906101000a900460ff161561078f5781600001546002826002015481548110610763577f4e487b7100000000000000000000000000000000000000000000000000000000600052603260045260246000fd5b906000526020600020906002020160010160008282546107839190610a3e565b925050819055506107af565b81600001548160000160008282546107a79190610a3e565b925050819055505b505050565b600060026107c061080e565b815481106107f7577f4e487b7100000000000000000000000000000000000000000000000000000000600052603260045260246000fd5b906000526020600020906002020160000154905090565b6000806000905060005b6002805490508110156108dd578160028281548110610860577f4e487b7100000000000000000000000000000000000000000000000000000000600052603260045260246000fd5b90600052602060002090600202016001015411156108ca57600281815481106108b2577f4e487b7100000000000000000000000000000000000000000000000000000000600052603260045260246000fd5b90600052602060002090600202016001015491508092505b80806108d590610ae6565b915050610818565b505090565b6000813590506108f181610b5e565b92915050565b60008135905061090681610b75565b92915050565b60006020828403121561091e57600080fd5b600061092c848285016108e2565b91505092915050565b60006020828403121561094757600080fd5b6000610955848285016108f7565b91505092915050565b61096781610a94565b82525050565b61097681610aa6565b82525050565b61098581610ab2565b82525050565b61099481610adc565b82525050565b60006020820190506109af600083018461095e565b92915050565b60006020820190506109ca600083018461097c565b92915050565b60006040820190506109e5600083018561097c565b6109f2602083018461098b565b9392505050565b6000608082019050610a0e600083018761098b565b610a1b602083018661096d565b610a28604083018561095e565b610a35606083018461098b565b95945050505050565b6000610a4982610adc565b9150610a5483610adc565b9250827fffffffffffffffffffffffffffffffffffffffffffffffffffffffffffffffff03821115610a8957610a88610b2f565b5b828201905092915050565b6000610a9f82610abc565b9050919050565b60008115159050919050565b6000819050919050565b600073ffffffffffffffffffffffffffffffffffffffff82169050919050565b6000819050919050565b6000610af182610adc565b91507fffffffffffffffffffffffffffffffffffffffffffffffffffffffffffffffff821415610b2457610b23610b2f565b5b600182019050919050565b7f4e487b7100000000000000000000000000000000000000000000000000000000600052601160045260246000fd5b610b6781610a94565b8114610b7257600080fd5b50565b610b7e81610adc565b8114610b8957600080fd5b5056fea26469706673582212207ad7c1eed956870e7dc2344a8d04f2174c5767618e463db0668b88d4936b972d64736f6c63430008000033",
  "immutableReferences": {},
  "source": "pragma solidity >=0.7.0 <0.9.0;\r\n\r\ncontract Ballot {\r\n\r\n    struct Voter {\r\n        uint weight;\r\n        bool isVoted;\r\n        address delegate; \r\n        uint vote;  \r\n    }\r\n\r\n    struct Proposal {\r\n        bytes32 name;\r\n        uint voteCount; \r\n    }\r\n\r\n    address public chairperson;\r\n    mapping(address => Voter) public votersRecord;\r\n    Proposal[] public proposals;\r\n\r\n    constructor(bytes32[] memory proposalNames) {\r\n        chairperson = msg.sender;\r\n        votersRecord[chairperson].weight = 1;\r\n        for (uint i = 0; i < proposalNames.length; i++) {\r\n            proposals.push(Proposal({\r\n                name: proposalNames[i],\r\n                voteCount: 0\r\n            }));\r\n        }\r\n    }\r\n\r\n    function Registration(address voter) public {\r\n        require(msg.sender == chairperson);\r\n        require(!votersRecord[voter].isVoted);\r\n        require(votersRecord[voter].weight == 0);\r\n        votersRecord[voter].weight = 1;\r\n    }\r\n\r\n\r\n    function delegate(address to) public {\r\n        Voter storage sender = votersRecord[msg.sender];\r\n        require(!sender.isVoted);\r\n        require(to != msg.sender);\r\n\r\n        while (votersRecord[to].delegate != address(0)) {\r\n            to = votersRecord[to].delegate;\r\n            require(to != msg.sender);\r\n        }\r\n\r\n        sender.isVoted = true;\r\n        sender.delegate = to;\r\n        Voter storage delegate_ = votersRecord[to];\r\n        if (delegate_.isVoted) {\r\n            proposals[delegate_.vote].voteCount += sender.weight;\r\n        } else {\r\n            delegate_.weight += sender.weight;\r\n        }\r\n    }\r\n\r\n    function vote(uint proposal) public {\r\n        Voter storage sender = votersRecord[msg.sender];\r\n        require(sender.weight != 0);\r\n        require(!sender.isVoted);\r\n        sender.isVoted = true;\r\n        sender.vote = proposal;\r\n        \r\n        proposals[proposal].voteCount += sender.weight;\r\n    }\r\n\r\n    function winningProposal() private view returns (uint winningProposal_){\r\n        uint winningVoteCount = 0;\r\n        for (uint p = 0; p < proposals.length; p++) {\r\n            if (proposals[p].voteCount > winningVoteCount) {\r\n                winningVoteCount = proposals[p].voteCount;\r\n                winningProposal_ = p;\r\n            }\r\n        }\r\n    }\r\n\r\n    function winnerName() public view returns (bytes32 winnerName_){\r\n        winnerName_ = proposals[winningProposal()].name;\r\n    }\r\n}",
  "sourcePath": "/home/roach/dev/solidity/Ballot/contracts/Ballot.sol",
  "compiler": {
    "name": "solc",
    "version": "0.8.0+commit.c7dfd78e.Linux.g++"
  },
  "schemaVersion": "3.3.4",
  "updatedAt": "2021-07-01T02:15:12.892Z",
  "networkType": "ethereum",
  "devdoc": {
    "kind": "dev",
    "methods": {},
    "version": 1
  },
  "userdoc": {
    "kind": "user",
    "methods": {},
    "version": 1
  }
}