{
  "contractName": "MockBallot",
  "abi": [
    {
      "inputs": [
        {
          "internalType": "bytes32[]",
          "name": "proposalNames",
          "type": "bytes32[]"
        }
      ],
      "stateMutability": "nonpayable",
      "type": "constructor"
    },
    {
      "inputs": [],
      "name": "chairperson",
      "outputs": [
        {
          "internalType": "address",
          "name": "",
          "type": "address"
        }
      ],
      "stateMutability": "view",
      "type": "function",
      "constant": true
    },
    {
      "inputs": [
        {
          "internalType": "uint8",
          "name": "_phase",
          "type": "uint8"
        }
      ],
      "name": "changePhase",
      "outputs": [],
      "stateMutability": "nonpayable",
      "type": "function"
    },
    {
      "inputs": [],
      "name": "currentPhase",
      "outputs": [
        {
          "internalType": "enum Ballot.Phase",
          "name": "",
          "type": "uint8"
        }
      ],
      "stateMutability": "view",
      "type": "function",
      "constant": true
    },
    {
      "inputs": [
        {
          "internalType": "address",
          "name": "to",
          "type": "address"
        }
      ],
      "name": "delegate",
      "outputs": [],
      "stateMutability": "nonpayable",
      "type": "function"
    },
    {
      "inputs": [
        {
          "internalType": "uint256",
          "name": "",
          "type": "uint256"
        }
      ],
      "name": "proposals",
      "outputs": [
        {
          "internalType": "bytes32",
          "name": "name",
          "type": "bytes32"
        },
        {
          "internalType": "uint256",
          "name": "voteCount",
          "type": "uint256"
        }
      ],
      "stateMutability": "view",
      "type": "function",
      "constant": true
    },
    {
      "inputs": [],
      "name": "r",
      "outputs": [
        {
          "internalType": "uint256",
          "name": "",
          "type": "uint256"
        }
      ],
      "stateMutability": "view",
      "type": "function",
      "constant": true
    },
    {
      "inputs": [
        {
          "internalType": "address",
          "name": "voter",
          "type": "address"
        }
      ],
      "name": "registration",
      "outputs": [],
      "stateMutability": "nonpayable",
      "type": "function"
    },
    {
      "inputs": [],
      "name": "timee",
      "outputs": [
        {
          "internalType": "uint256",
          "name": "",
          "type": "uint256"
        }
      ],
      "stateMutability": "view",
      "type": "function",
      "constant": true
    },
    {
      "inputs": [
        {
          "internalType": "uint256",
          "name": "proposal",
          "type": "uint256"
        }
      ],
      "name": "vote",
      "outputs": [],
      "stateMutability": "nonpayable",
      "type": "function"
    },
    {
      "inputs": [
        {
          "internalType": "address",
          "name": "",
          "type": "address"
        }
      ],
      "name": "voters",
      "outputs": [
        {
          "internalType": "uint256",
          "name": "weight",
          "type": "uint256"
        },
        {
          "internalType": "bool",
          "name": "voted",
          "type": "bool"
        },
        {
          "internalType": "address",
          "name": "delegate",
          "type": "address"
        },
        {
          "internalType": "uint256",
          "name": "vote",
          "type": "uint256"
        }
      ],
      "stateMutability": "view",
      "type": "function",
      "constant": true
    },
    {
      "inputs": [],
      "name": "winnerName",
      "outputs": [
        {
          "internalType": "bytes32",
          "name": "winnerName_",
          "type": "bytes32"
        }
      ],
      "stateMutability": "view",
      "type": "function",
      "constant": true
    },
    {
      "inputs": [],
      "name": "test",
      "outputs": [],
      "stateMutability": "nonpayable",
      "type": "function"
    },
    {
      "inputs": [
        {
          "internalType": "uint256",
          "name": "secs",
          "type": "uint256"
        }
      ],
      "name": "turnBackTime",
      "outputs": [],
      "stateMutability": "nonpayable",
      "type": "function"
    }
  ],
  "bytecode": "0x608060405263610772706000556040518060600160405280600062ffffff1681526020016201518062ffffff1681526020016202a30062ffffff1681525060019060036200004f9291906200029c565b506000600760006101000a81548160ff021916908360038111156200009d577f4e487b7100000000000000000000000000000000000000000000000000000000600052602160045260246000fd5b02179055506002600955348015620000b457600080fd5b5060405162001cde38038062001cde8339818101604052810190620000da9190620003c0565b8033600460006101000a81548173ffffffffffffffffffffffffffffffffffffffff021916908373ffffffffffffffffffffffffffffffffffffffff160217905550600160056000600460009054906101000a900473ffffffffffffffffffffffffffffffffffffffff1673ffffffffffffffffffffffffffffffffffffffff1673ffffffffffffffffffffffffffffffffffffffff168152602001908152602001600020600001819055506000600760006101000a81548160ff02191690836003811115620001d3577f4e487b7100000000000000000000000000000000000000000000000000000000600052602160045260246000fd5b021790555060005b81518110156200029357600660405180604001604052808484815181106200022c577f4e487b7100000000000000000000000000000000000000000000000000000000600052603260045260246000fd5b60200260200101518152602001600081525090806001815401808255809150506001900390600052602060002090600202016000909190919091506000820151816000015560208201518160010155505080806200028a906200047c565b915050620001db565b50505062000542565b8260038101928215620002d5579160200282015b82811115620002d4578251829062ffffff16905591602001919060010190620002b0565b5b509050620002e49190620002e8565b5090565b5b8082111562000303576000816000905550600101620002e9565b5090565b60006200031e620003188462000439565b62000405565b905080838252602082019050828560208602820111156200033e57600080fd5b60005b85811015620003725781620003578882620003a9565b84526020840193506020830192505060018101905062000341565b5050509392505050565b600082601f8301126200038e57600080fd5b8151620003a084826020860162000307565b91505092915050565b600081519050620003ba8162000528565b92915050565b600060208284031215620003d357600080fd5b600082015167ffffffffffffffff811115620003ee57600080fd5b620003fc848285016200037c565b91505092915050565b6000604051905081810181811067ffffffffffffffff821117156200042f576200042e620004f9565b5b8060405250919050565b600067ffffffffffffffff821115620004575762000456620004f9565b5b602082029050602081019050919050565b6000819050919050565b6000819050919050565b6000620004898262000472565b91507fffffffffffffffffffffffffffffffffffffffffffffffffffffffffffffffff821415620004bf57620004be620004ca565b5b600182019050919050565b7f4e487b7100000000000000000000000000000000000000000000000000000000600052601160045260246000fd5b7f4e487b7100000000000000000000000000000000000000000000000000000000600052604160045260246000fd5b620005338162000468565b81146200053f57600080fd5b50565b61178c80620005526000396000f3fe608060405234801561001057600080fd5b50600436106100ec576000357c0100000000000000000000000000000000000000000000000000000000900480635c19a95c116100a9578063a3ec138d11610083578063a3ec138d1461020a578063b1e8aea81461023d578063e2ba53f014610259578063f8a8fd6d14610277576100ec565b80635c19a95c146101b25780636c8ae38c146101ce5780637bd312b6146101ec576100ec565b80630121b93f146100f1578063013cf08b1461010d578063055ad42e1461013e5780630721c2971461015c5780630840605a146101785780632e4176cf14610194575b600080fd5b61010b60048036038101906101069190611066565b610281565b005b61012760048036038101906101229190611066565b6104b2565b60405161013592919061135f565b60405180910390f35b6101466104e6565b6040516101539190611388565b60405180910390f35b6101766004803603810190610171919061108f565b6104f9565b005b610192600480360381019061018d919061103d565b610655565b005b61019c6108d3565b6040516101a99190611329565b60405180910390f35b6101cc60048036038101906101c7919061103d565b6108f9565b005b6101d6610d7f565b6040516101e391906114a3565b60405180910390f35b6101f4610d85565b60405161020191906114a3565b60405180910390f35b610224600480360381019061021f919061103d565b610d8b565b60405161023494939291906114be565b60405180910390f35b61025760048036038101906102529190611066565b610de8565b005b610261610e03565b60405161026e9190611344565b60405180910390f35b61027f610f21565b005b60028060038111156102bc577f4e487b7100000000000000000000000000000000000000000000000000000000600052602160045260246000fd5b600760009054906101000a900460ff166003811115610304577f4e487b7100000000000000000000000000000000000000000000000000000000600052602160045260246000fd5b14610344576040517f08c379a000000000000000000000000000000000000000000000000000000000815260040161033b906113e3565b60405180910390fd5b6000600560003373ffffffffffffffffffffffffffffffffffffffff1673ffffffffffffffffffffffffffffffffffffffff16815260200190815260200160002090506000816000015414156103cf576040517f08c379a00000000000000000000000000000000000000000000000000000000081526004016103c6906113a3565b60405180910390fd5b8060010160009054906101000a900460ff1615610421576040517f08c379a0000000000000000000000000000000000000000000000000000000008152600401610418906113c3565b60405180910390fd5b60018160010160006101000a81548160ff021916908315150217905550828160020181905550806000015460068481548110610486577f4e487b7100000000000000000000000000000000000000000000000000000000600052603260045260246000fd5b906000526020600020906002020160010160008282546104a69190611514565b92505081905550505050565b600681815481106104c257600080fd5b90600052602060002090600202016000915090508060000154908060010154905082565b600760009054906101000a900460ff1681565b60018082610507919061159e565b60ff1660038110610541577f4e487b7100000000000000000000000000000000000000000000000000000000600052603260045260246000fd5b01546000546105509190611514565b42101580156105c157506101686001808361056b919061159e565b60ff16600381106105a5577f4e487b7100000000000000000000000000000000000000000000000000000000600052603260045260246000fd5b01546000546105b49190611514565b6105be9190611514565b42105b15610652578060ff166003811115610602577f4e487b7100000000000000000000000000000000000000000000000000000000600052602160045260246000fd5b600760006101000a81548160ff0219169083600381111561064c577f4e487b7100000000000000000000000000000000000000000000000000000000600052602160045260246000fd5b02179055505b50565b600460009054906101000a900473ffffffffffffffffffffffffffffffffffffffff1673ffffffffffffffffffffffffffffffffffffffff163373ffffffffffffffffffffffffffffffffffffffff16146106e5576040517f08c379a00000000000000000000000000000000000000000000000000000000081526004016106dc90611423565b60405180910390fd5b6001806003811115610720577f4e487b7100000000000000000000000000000000000000000000000000000000600052602160045260246000fd5b600760009054906101000a900460ff166003811115610768577f4e487b7100000000000000000000000000000000000000000000000000000000600052602160045260246000fd5b146107a8576040517f08c379a000000000000000000000000000000000000000000000000000000000815260040161079f906113e3565b60405180910390fd5b600560008373ffffffffffffffffffffffffffffffffffffffff1673ffffffffffffffffffffffffffffffffffffffff16815260200190815260200160002060010160009054906101000a900460ff1615610838576040517f08c379a000000000000000000000000000000000000000000000000000000000815260040161082f90611463565b60405180910390fd5b6000600560008473ffffffffffffffffffffffffffffffffffffffff1673ffffffffffffffffffffffffffffffffffffffff168152602001908152602001600020600001541461088757600080fd5b6001600560008473ffffffffffffffffffffffffffffffffffffffff1673ffffffffffffffffffffffffffffffffffffffff168152602001908152602001600020600001819055505050565b600460009054906101000a900473ffffffffffffffffffffffffffffffffffffffff1681565b6002806003811115610934577f4e487b7100000000000000000000000000000000000000000000000000000000600052602160045260246000fd5b600760009054906101000a900460ff16600381111561097c577f4e487b7100000000000000000000000000000000000000000000000000000000600052602160045260246000fd5b146109bc576040517f08c379a00000000000000000000000000000000000000000000000000000000081526004016109b3906113e3565b60405180910390fd5b6000600560003373ffffffffffffffffffffffffffffffffffffffff1673ffffffffffffffffffffffffffffffffffffffff16815260200190815260200160002090508060010160009054906101000a900460ff1615610a51576040517f08c379a0000000000000000000000000000000000000000000000000000000008152600401610a4890611403565b60405180910390fd5b3373ffffffffffffffffffffffffffffffffffffffff168373ffffffffffffffffffffffffffffffffffffffff161415610ac0576040517f08c379a0000000000000000000000000000000000000000000000000000000008152600401610ab790611483565b60405180910390fd5b5b600073ffffffffffffffffffffffffffffffffffffffff16600560008573ffffffffffffffffffffffffffffffffffffffff1673ffffffffffffffffffffffffffffffffffffffff16815260200190815260200160002060010160019054906101000a900473ffffffffffffffffffffffffffffffffffffffff1673ffffffffffffffffffffffffffffffffffffffff1614610c3057600560008473ffffffffffffffffffffffffffffffffffffffff1673ffffffffffffffffffffffffffffffffffffffff16815260200190815260200160002060010160019054906101000a900473ffffffffffffffffffffffffffffffffffffffff1692503373ffffffffffffffffffffffffffffffffffffffff168373ffffffffffffffffffffffffffffffffffffffff161415610c2b576040517f08c379a0000000000000000000000000000000000000000000000000000000008152600401610c2290611443565b60405180910390fd5b610ac1565b60018160010160006101000a81548160ff021916908315150217905550828160010160016101000a81548173ffffffffffffffffffffffffffffffffffffffff021916908373ffffffffffffffffffffffffffffffffffffffff1602179055506000600560008573ffffffffffffffffffffffffffffffffffffffff1673ffffffffffffffffffffffffffffffffffffffff16815260200190815260200160002090508060010160009054906101000a900460ff1615610d595781600001546006826002015481548110610d2d577f4e487b7100000000000000000000000000000000000000000000000000000000600052603260045260246000fd5b90600052602060002090600202016001016000828254610d4d9190611514565b92505081905550610d79565b8160000154816000016000828254610d719190611514565b925050819055505b50505050565b60095481565b60085481565b60056020528060005260406000206000915090508060000154908060010160009054906101000a900460ff16908060010160019054906101000a900473ffffffffffffffffffffffffffffffffffffffff16908060020154905084565b80600080828254610df9919061156a565b9250508190555050565b60006003806003811115610e40577f4e487b7100000000000000000000000000000000000000000000000000000000600052602160045260246000fd5b600760009054906101000a900460ff166003811115610e88577f4e487b7100000000000000000000000000000000000000000000000000000000600052602160045260246000fd5b14610ec8576040517f08c379a0000000000000000000000000000000000000000000000000000000008152600401610ebf906113e3565b60405180910390fd5b6006610ed2610f2a565b81548110610f09577f4e487b7100000000000000000000000000000000000000000000000000000000600052603260045260246000fd5b90600052602060002090600202016000015491505090565b42600881905550565b6000806000905060005b600680549050811015610ff9578160068281548110610f7c577f4e487b7100000000000000000000000000000000000000000000000000000000600052603260045260246000fd5b9060005260206000209060020201600101541115610fe65760068181548110610fce577f4e487b7100000000000000000000000000000000000000000000000000000000600052603260045260246000fd5b90600052602060002090600202016001015491508092505b8080610ff190611656565b915050610f34565b505090565b60008135905061100d81611711565b92915050565b60008135905061102281611728565b92915050565b6000813590506110378161173f565b92915050565b60006020828403121561104f57600080fd5b600061105d84828501610ffe565b91505092915050565b60006020828403121561107857600080fd5b600061108684828501611013565b91505092915050565b6000602082840312156110a157600080fd5b60006110af84828501611028565b91505092915050565b6110c1816115d2565b82525050565b6110d0816115e4565b82525050565b6110df816115f0565b82525050565b6110ee81611644565b82525050565b6000611101601483611503565b91507f486173206e6f20726967687420746f20766f74650000000000000000000000006000830152602082019050919050565b6000611141600e83611503565b91507f416c726561647920766f7465642e0000000000000000000000000000000000006000830152602082019050919050565b6000611181601983611503565b91507f5265717569726564205068617365206e6f7420416374697665000000000000006000830152602082019050919050565b60006111c1601283611503565b91507f596f7520616c726561647920766f7465642e00000000000000000000000000006000830152602082019050919050565b6000611201602883611503565b91507f4f6e6c79206368616972706572736f6e2063616e20676976652072696768742060008301527f746f20766f74652e0000000000000000000000000000000000000000000000006020830152604082019050919050565b6000611267601983611503565b91507f466f756e64206c6f6f7020696e2064656c65676174696f6e2e000000000000006000830152602082019050919050565b60006112a7601883611503565b91507f54686520766f74657220616c726561647920766f7465642e00000000000000006000830152602082019050919050565b60006112e7601e83611503565b91507f53656c662d64656c65676174696f6e20697320646973616c6c6f7765642e00006000830152602082019050919050565b6113238161162d565b82525050565b600060208201905061133e60008301846110b8565b92915050565b600060208201905061135960008301846110d6565b92915050565b600060408201905061137460008301856110d6565b611381602083018461131a565b9392505050565b600060208201905061139d60008301846110e5565b92915050565b600060208201905081810360008301526113bc816110f4565b9050919050565b600060208201905081810360008301526113dc81611134565b9050919050565b600060208201905081810360008301526113fc81611174565b9050919050565b6000602082019050818103600083015261141c816111b4565b9050919050565b6000602082019050818103600083015261143c816111f4565b9050919050565b6000602082019050818103600083015261145c8161125a565b9050919050565b6000602082019050818103600083015261147c8161129a565b9050919050565b6000602082019050818103600083015261149c816112da565b9050919050565b60006020820190506114b8600083018461131a565b92915050565b60006080820190506114d3600083018761131a565b6114e060208301866110c7565b6114ed60408301856110b8565b6114fa606083018461131a565b95945050505050565b600082825260208201905092915050565b600061151f8261162d565b915061152a8361162d565b9250827fffffffffffffffffffffffffffffffffffffffffffffffffffffffffffffffff0382111561155f5761155e61169f565b5b828201905092915050565b60006115758261162d565b91506115808361162d565b9250828210156115935761159261169f565b5b828203905092915050565b60006115a982611637565b91506115b483611637565b9250828210156115c7576115c661169f565b5b828203905092915050565b60006115dd8261160d565b9050919050565b60008115159050919050565b6000819050919050565b6000819050611608826116fd565b919050565b600073ffffffffffffffffffffffffffffffffffffffff82169050919050565b6000819050919050565b600060ff82169050919050565b600061164f826115fa565b9050919050565b60006116618261162d565b91507fffffffffffffffffffffffffffffffffffffffffffffffffffffffffffffffff8214156116945761169361169f565b5b600182019050919050565b7f4e487b7100000000000000000000000000000000000000000000000000000000600052601160045260246000fd5b7f4e487b7100000000000000000000000000000000000000000000000000000000600052602160045260246000fd5b6004811061170e5761170d6116ce565b5b50565b61171a816115d2565b811461172557600080fd5b50565b6117318161162d565b811461173c57600080fd5b50565b61174881611637565b811461175357600080fd5b5056fea2646970667358221220ed54b91875d7ac13d39ce1bd00b3fbfeb67d28cb4b35f105539833fd828154c464736f6c63430008000033",
  "immutableReferences": {},
  "source": "pragma solidity >=0.7.0 <0.9.0;\n\nimport \"./Ballot.sol\";\n\ncontract MockBallot is Ballot{\n    \n    uint public timee;\n    uint public r = 2;\n\n    constructor (bytes32[] memory proposalNames) Ballot(proposalNames){\n\n    }\n    \n    function test () public {\n        timee = block.timestamp;\n    }\n\n    function turnBackTime(uint256 secs) external {\n        regPhaseStart -= secs;\n    }\n}",
  "sourcePath": "/home/roach/dev/solidity/Ballot/contracts/MockBallot.sol",
  "compiler": {
    "name": "solc",
    "version": "0.8.0+commit.c7dfd78e.Linux.g++"
  },
  "schemaVersion": "3.3.4",
  "updatedAt": "2021-07-15T23:27:56.260Z",
  "networkType": "ethereum",
  "devdoc": {
    "kind": "dev",
    "methods": {},
    "version": 1
  },
  "userdoc": {
    "kind": "user",
    "methods": {},
    "version": 1
  }
}